{
  "contractName": "GameNFT",
  "abi": [
    {
      "inputs": [],
      "stateMutability": "nonpayable",
      "type": "constructor"
    },
    {
      "anonymous": false,
      "inputs": [
        {
          "indexed": true,
          "internalType": "address",
          "name": "account",
          "type": "address"
        },
        {
          "indexed": true,
          "internalType": "address",
          "name": "operator",
          "type": "address"
        },
        {
          "indexed": false,
          "internalType": "bool",
          "name": "approved",
          "type": "bool"
        }
      ],
      "name": "ApprovalForAll",
      "type": "event"
    },
    {
      "anonymous": false,
      "inputs": [
        {
          "indexed": true,
          "internalType": "address",
          "name": "previousOwner",
          "type": "address"
        },
        {
          "indexed": true,
          "internalType": "address",
          "name": "newOwner",
          "type": "address"
        }
      ],
      "name": "OwnershipTransferred",
      "type": "event"
    },
    {
      "anonymous": false,
      "inputs": [
        {
          "indexed": true,
          "internalType": "address",
          "name": "operator",
          "type": "address"
        },
        {
          "indexed": true,
          "internalType": "address",
          "name": "from",
          "type": "address"
        },
        {
          "indexed": true,
          "internalType": "address",
          "name": "to",
          "type": "address"
        },
        {
          "indexed": false,
          "internalType": "uint256[]",
          "name": "ids",
          "type": "uint256[]"
        },
        {
          "indexed": false,
          "internalType": "uint256[]",
          "name": "values",
          "type": "uint256[]"
        }
      ],
      "name": "TransferBatch",
      "type": "event"
    },
    {
      "anonymous": false,
      "inputs": [
        {
          "indexed": true,
          "internalType": "address",
          "name": "operator",
          "type": "address"
        },
        {
          "indexed": true,
          "internalType": "address",
          "name": "from",
          "type": "address"
        },
        {
          "indexed": true,
          "internalType": "address",
          "name": "to",
          "type": "address"
        },
        {
          "indexed": false,
          "internalType": "uint256",
          "name": "id",
          "type": "uint256"
        },
        {
          "indexed": false,
          "internalType": "uint256",
          "name": "value",
          "type": "uint256"
        }
      ],
      "name": "TransferSingle",
      "type": "event"
    },
    {
      "anonymous": false,
      "inputs": [
        {
          "indexed": false,
          "internalType": "string",
          "name": "value",
          "type": "string"
        },
        {
          "indexed": true,
          "internalType": "uint256",
          "name": "id",
          "type": "uint256"
        }
      ],
      "name": "URI",
      "type": "event"
    },
    {
      "inputs": [],
      "name": "BonsaiTree",
      "outputs": [
        {
          "internalType": "uint256",
          "name": "",
          "type": "uint256"
        }
      ],
      "stateMutability": "view",
      "type": "function",
      "constant": true
    },
    {
      "inputs": [],
      "name": "CherryTree",
      "outputs": [
        {
          "internalType": "uint256",
          "name": "",
          "type": "uint256"
        }
      ],
      "stateMutability": "view",
      "type": "function",
      "constant": true
    },
    {
      "inputs": [],
      "name": "OakTree",
      "outputs": [
        {
          "internalType": "uint256",
          "name": "",
          "type": "uint256"
        }
      ],
      "stateMutability": "view",
      "type": "function",
      "constant": true
    },
    {
      "inputs": [],
      "name": "PineTree",
      "outputs": [
        {
          "internalType": "uint256",
          "name": "",
          "type": "uint256"
        }
      ],
      "stateMutability": "view",
      "type": "function",
      "constant": true
    },
    {
      "inputs": [],
      "name": "WeepingWillow",
      "outputs": [
        {
          "internalType": "uint256",
          "name": "",
          "type": "uint256"
        }
      ],
      "stateMutability": "view",
      "type": "function",
      "constant": true
    },
    {
      "inputs": [
        {
          "internalType": "address",
          "name": "account",
          "type": "address"
        },
        {
          "internalType": "uint256",
          "name": "id",
          "type": "uint256"
        }
      ],
      "name": "balanceOf",
      "outputs": [
        {
          "internalType": "uint256",
          "name": "",
          "type": "uint256"
        }
      ],
      "stateMutability": "view",
      "type": "function",
      "constant": true
    },
    {
      "inputs": [
        {
          "internalType": "address[]",
          "name": "accounts",
          "type": "address[]"
        },
        {
          "internalType": "uint256[]",
          "name": "ids",
          "type": "uint256[]"
        }
      ],
      "name": "balanceOfBatch",
      "outputs": [
        {
          "internalType": "uint256[]",
          "name": "",
          "type": "uint256[]"
        }
      ],
      "stateMutability": "view",
      "type": "function",
      "constant": true
    },
    {
      "inputs": [
        {
          "internalType": "address",
          "name": "account",
          "type": "address"
        },
        {
          "internalType": "address",
          "name": "operator",
          "type": "address"
        }
      ],
      "name": "isApprovedForAll",
      "outputs": [
        {
          "internalType": "bool",
          "name": "",
          "type": "bool"
        }
      ],
      "stateMutability": "view",
      "type": "function",
      "constant": true
    },
    {
      "inputs": [],
      "name": "owner",
      "outputs": [
        {
          "internalType": "address",
          "name": "",
          "type": "address"
        }
      ],
      "stateMutability": "view",
      "type": "function",
      "constant": true
    },
    {
      "inputs": [],
      "name": "renounceOwnership",
      "outputs": [],
      "stateMutability": "nonpayable",
      "type": "function"
    },
    {
      "inputs": [
        {
          "internalType": "address",
          "name": "from",
          "type": "address"
        },
        {
          "internalType": "address",
          "name": "to",
          "type": "address"
        },
        {
          "internalType": "uint256[]",
          "name": "ids",
          "type": "uint256[]"
        },
        {
          "internalType": "uint256[]",
          "name": "amounts",
          "type": "uint256[]"
        },
        {
          "internalType": "bytes",
          "name": "data",
          "type": "bytes"
        }
      ],
      "name": "safeBatchTransferFrom",
      "outputs": [],
      "stateMutability": "nonpayable",
      "type": "function"
    },
    {
      "inputs": [
        {
          "internalType": "address",
          "name": "from",
          "type": "address"
        },
        {
          "internalType": "address",
          "name": "to",
          "type": "address"
        },
        {
          "internalType": "uint256",
          "name": "id",
          "type": "uint256"
        },
        {
          "internalType": "uint256",
          "name": "amount",
          "type": "uint256"
        },
        {
          "internalType": "bytes",
          "name": "data",
          "type": "bytes"
        }
      ],
      "name": "safeTransferFrom",
      "outputs": [],
      "stateMutability": "nonpayable",
      "type": "function"
    },
    {
      "inputs": [
        {
          "internalType": "address",
          "name": "operator",
          "type": "address"
        },
        {
          "internalType": "bool",
          "name": "approved",
          "type": "bool"
        }
      ],
      "name": "setApprovalForAll",
      "outputs": [],
      "stateMutability": "nonpayable",
      "type": "function"
    },
    {
      "inputs": [
        {
          "internalType": "bytes4",
          "name": "interfaceId",
          "type": "bytes4"
        }
      ],
      "name": "supportsInterface",
      "outputs": [
        {
          "internalType": "bool",
          "name": "",
          "type": "bool"
        }
      ],
      "stateMutability": "view",
      "type": "function",
      "constant": true
    },
    {
      "inputs": [
        {
          "internalType": "address",
          "name": "newOwner",
          "type": "address"
        }
      ],
      "name": "transferOwnership",
      "outputs": [],
      "stateMutability": "nonpayable",
      "type": "function"
    },
    {
      "inputs": [
        {
          "internalType": "uint256",
          "name": "",
          "type": "uint256"
        }
      ],
      "name": "uri",
      "outputs": [
        {
          "internalType": "string",
          "name": "",
          "type": "string"
        }
      ],
      "stateMutability": "view",
      "type": "function",
      "constant": true
    },
    {
      "inputs": [
        {
          "internalType": "address",
          "name": "_user",
          "type": "address"
        },
        {
          "internalType": "uint256",
          "name": "_tokenId",
          "type": "uint256"
        }
      ],
      "name": "reward",
      "outputs": [],
      "stateMutability": "nonpayable",
      "type": "function"
    }
  ],
  "bytecode": "0x60806040523480156200001157600080fd5b506040518060600160405280602e815260200162002fbb602e91396200003d816200006460201b60201c565b506200005e620000526200008060201b60201c565b6200008860201b60201c565b62000263565b80600290805190602001906200007c9291906200014e565b5050565b600033905090565b6000600360009054906101000a900473ffffffffffffffffffffffffffffffffffffffff16905081600360006101000a81548173ffffffffffffffffffffffffffffffffffffffff021916908373ffffffffffffffffffffffffffffffffffffffff1602179055508173ffffffffffffffffffffffffffffffffffffffff168173ffffffffffffffffffffffffffffffffffffffff167f8be0079c531659141344cd1fd0a4f28419497f9722a3daafe3b4186f6b6457e060405160405180910390a35050565b8280546200015c906200022d565b90600052602060002090601f016020900481019282620001805760008555620001cc565b82601f106200019b57805160ff1916838001178555620001cc565b82800160010185558215620001cc579182015b82811115620001cb578251825591602001919060010190620001ae565b5b509050620001db9190620001df565b5090565b5b80821115620001fa576000816000905550600101620001e0565b5090565b7f4e487b7100000000000000000000000000000000000000000000000000000000600052602260045260246000fd5b600060028204905060018216806200024657607f821691505b602082108114156200025d576200025c620001fe565b5b50919050565b612d4880620002736000396000f3fe608060405234801561001057600080fd5b506004361061010a5760003560e01c80634e2be71c116100a2578063a22cb46511610071578063a22cb465146102a7578063c2a655c0146102c3578063e985e9c5146102e1578063f242432a14610311578063f2fde38b1461032d5761010a565b80634e2be71c146102435780635bc353a914610261578063715018a61461027f5780638da5cb5b146102895761010a565b806321670f22116100de57806321670f22146101bd5780632eb2c2d6146101d957806337cde7d6146101f55780634e1273f4146102135761010a565b8062fdd58e1461010f57806301ffc9a71461013f57806308562bc71461016f5780630e89341c1461018d575b600080fd5b61012960048036038101906101249190611964565b610349565b60405161013691906119b3565b60405180910390f35b61015960048036038101906101549190611a26565b610412565b6040516101669190611a6e565b60405180910390f35b6101776104f4565b60405161018491906119b3565b60405180910390f35b6101a760048036038101906101a29190611a89565b6104f9565b6040516101b49190611b4f565b60405180910390f35b6101d760048036038101906101d29190611964565b61058d565b005b6101f360048036038101906101ee9190611d6e565b6105c7565b005b6101fd610668565b60405161020a91906119b3565b60405180910390f35b61022d60048036038101906102289190611f00565b61066d565b60405161023a9190612036565b60405180910390f35b61024b610786565b60405161025891906119b3565b60405180910390f35b61026961078b565b60405161027691906119b3565b60405180910390f35b610287610790565b005b610291610818565b60405161029e9190612067565b60405180910390f35b6102c160048036038101906102bc91906120ae565b610842565b005b6102cb6109c3565b6040516102d891906119b3565b60405180910390f35b6102fb60048036038101906102f691906120ee565b6109c8565b6040516103089190611a6e565b60405180910390f35b61032b6004803603810190610326919061212e565b610a5c565b005b610347600480360381019061034291906121c5565b610afd565b005b60008073ffffffffffffffffffffffffffffffffffffffff168373ffffffffffffffffffffffffffffffffffffffff1614156103ba576040517f08c379a00000000000000000000000000000000000000000000000000000000081526004016103b190612264565b60405180910390fd5b60008083815260200190815260200160002060008473ffffffffffffffffffffffffffffffffffffffff1673ffffffffffffffffffffffffffffffffffffffff16815260200190815260200160002054905092915050565b60007fd9b67a26000000000000000000000000000000000000000000000000000000007bffffffffffffffffffffffffffffffffffffffffffffffffffffffff1916827bffffffffffffffffffffffffffffffffffffffffffffffffffffffff191614806104dd57507f0e89341c000000000000000000000000000000000000000000000000000000007bffffffffffffffffffffffffffffffffffffffffffffffffffffffff1916827bffffffffffffffffffffffffffffffffffffffffffffffffffffffff1916145b806104ed57506104ec82610bf5565b5b9050919050565b600081565b606060028054610508906122b3565b80601f0160208091040260200160405190810160405280929190818152602001828054610534906122b3565b80156105815780601f1061055657610100808354040283529160200191610581565b820191906000526020600020905b81548152906001019060200180831161056457829003601f168201915b50505050509050919050565b6000811015801561059e5750600581105b6105a757600080fd5b6105c38282600160405180602001604052806000815250610c5f565b5050565b6105cf610df5565b73ffffffffffffffffffffffffffffffffffffffff168573ffffffffffffffffffffffffffffffffffffffff16148061061557506106148561060f610df5565b6109c8565b5b610654576040517f08c379a000000000000000000000000000000000000000000000000000000000815260040161064b90612357565b60405180910390fd5b6106618585858585610dfd565b5050505050565b600381565b606081518351146106b3576040517f08c379a00000000000000000000000000000000000000000000000000000000081526004016106aa906123e9565b60405180910390fd5b6000835167ffffffffffffffff8111156106d0576106cf611b76565b5b6040519080825280602002602001820160405280156106fe5781602001602082028036833780820191505090505b50905060005b845181101561077b5761074b85828151811061072357610722612409565b5b602002602001015185838151811061073e5761073d612409565b5b6020026020010151610349565b82828151811061075e5761075d612409565b5b6020026020010181815250508061077490612467565b9050610704565b508091505092915050565b600281565b600181565b610798610df5565b73ffffffffffffffffffffffffffffffffffffffff166107b6610818565b73ffffffffffffffffffffffffffffffffffffffff161461080c576040517f08c379a0000000000000000000000000000000000000000000000000000000008152600401610803906124fc565b60405180910390fd5b6108166000611111565b565b6000600360009054906101000a900473ffffffffffffffffffffffffffffffffffffffff16905090565b8173ffffffffffffffffffffffffffffffffffffffff16610861610df5565b73ffffffffffffffffffffffffffffffffffffffff1614156108b8576040517f08c379a00000000000000000000000000000000000000000000000000000000081526004016108af9061258e565b60405180910390fd5b80600160006108c5610df5565b73ffffffffffffffffffffffffffffffffffffffff1673ffffffffffffffffffffffffffffffffffffffff16815260200190815260200160002060008473ffffffffffffffffffffffffffffffffffffffff1673ffffffffffffffffffffffffffffffffffffffff16815260200190815260200160002060006101000a81548160ff0219169083151502179055508173ffffffffffffffffffffffffffffffffffffffff16610972610df5565b73ffffffffffffffffffffffffffffffffffffffff167f17307eab39ab6107e8899845ad3d59bd9653f200f220920489ca2b5937696c31836040516109b79190611a6e565b60405180910390a35050565b600481565b6000600160008473ffffffffffffffffffffffffffffffffffffffff1673ffffffffffffffffffffffffffffffffffffffff16815260200190815260200160002060008373ffffffffffffffffffffffffffffffffffffffff1673ffffffffffffffffffffffffffffffffffffffff16815260200190815260200160002060009054906101000a900460ff16905092915050565b610a64610df5565b73ffffffffffffffffffffffffffffffffffffffff168573ffffffffffffffffffffffffffffffffffffffff161480610aaa5750610aa985610aa4610df5565b6109c8565b5b610ae9576040517f08c379a0000000000000000000000000000000000000000000000000000000008152600401610ae090612620565b60405180910390fd5b610af685858585856111d7565b5050505050565b610b05610df5565b73ffffffffffffffffffffffffffffffffffffffff16610b23610818565b73ffffffffffffffffffffffffffffffffffffffff1614610b79576040517f08c379a0000000000000000000000000000000000000000000000000000000008152600401610b70906124fc565b60405180910390fd5b600073ffffffffffffffffffffffffffffffffffffffff168173ffffffffffffffffffffffffffffffffffffffff161415610be9576040517f08c379a0000000000000000000000000000000000000000000000000000000008152600401610be0906126b2565b60405180910390fd5b610bf281611111565b50565b60007f01ffc9a7000000000000000000000000000000000000000000000000000000007bffffffffffffffffffffffffffffffffffffffffffffffffffffffff1916827bffffffffffffffffffffffffffffffffffffffffffffffffffffffff1916149050919050565b600073ffffffffffffffffffffffffffffffffffffffff168473ffffffffffffffffffffffffffffffffffffffff161415610ccf576040517f08c379a0000000000000000000000000000000000000000000000000000000008152600401610cc690612744565b60405180910390fd5b6000610cd9610df5565b9050610cfa81600087610ceb88611459565b610cf488611459565b876114d3565b8260008086815260200190815260200160002060008773ffffffffffffffffffffffffffffffffffffffff1673ffffffffffffffffffffffffffffffffffffffff1681526020019081526020016000206000828254610d599190612764565b925050819055508473ffffffffffffffffffffffffffffffffffffffff16600073ffffffffffffffffffffffffffffffffffffffff168273ffffffffffffffffffffffffffffffffffffffff167fc3d58168c5ae7397731d063d5bbf3d657854427343f4c083240f7aacaa2d0f628787604051610dd79291906127ba565b60405180910390a4610dee816000878787876114db565b5050505050565b600033905090565b8151835114610e41576040517f08c379a0000000000000000000000000000000000000000000000000000000008152600401610e3890612855565b60405180910390fd5b600073ffffffffffffffffffffffffffffffffffffffff168473ffffffffffffffffffffffffffffffffffffffff161415610eb1576040517f08c379a0000000000000000000000000000000000000000000000000000000008152600401610ea8906128e7565b60405180910390fd5b6000610ebb610df5565b9050610ecb8187878787876114d3565b60005b845181101561107c576000858281518110610eec57610eeb612409565b5b602002602001015190506000858381518110610f0b57610f0a612409565b5b60200260200101519050600080600084815260200190815260200160002060008b73ffffffffffffffffffffffffffffffffffffffff1673ffffffffffffffffffffffffffffffffffffffff16815260200190815260200160002054905081811015610fac576040517f08c379a0000000000000000000000000000000000000000000000000000000008152600401610fa390612979565b60405180910390fd5b81810360008085815260200190815260200160002060008c73ffffffffffffffffffffffffffffffffffffffff1673ffffffffffffffffffffffffffffffffffffffff168152602001908152602001600020819055508160008085815260200190815260200160002060008b73ffffffffffffffffffffffffffffffffffffffff1673ffffffffffffffffffffffffffffffffffffffff16815260200190815260200160002060008282546110619190612764565b925050819055505050508061107590612467565b9050610ece565b508473ffffffffffffffffffffffffffffffffffffffff168673ffffffffffffffffffffffffffffffffffffffff168273ffffffffffffffffffffffffffffffffffffffff167f4a39dc06d4c0dbc64b70af90fd698a233a518aa5d07e595d983b8c0526c8f7fb87876040516110f3929190612999565b60405180910390a46111098187878787876116c2565b505050505050565b6000600360009054906101000a900473ffffffffffffffffffffffffffffffffffffffff16905081600360006101000a81548173ffffffffffffffffffffffffffffffffffffffff021916908373ffffffffffffffffffffffffffffffffffffffff1602179055508173ffffffffffffffffffffffffffffffffffffffff168173ffffffffffffffffffffffffffffffffffffffff167f8be0079c531659141344cd1fd0a4f28419497f9722a3daafe3b4186f6b6457e060405160405180910390a35050565b600073ffffffffffffffffffffffffffffffffffffffff168473ffffffffffffffffffffffffffffffffffffffff161415611247576040517f08c379a000000000000000000000000000000000000000000000000000000000815260040161123e906128e7565b60405180910390fd5b6000611251610df5565b905061127181878761126288611459565b61126b88611459565b876114d3565b600080600086815260200190815260200160002060008873ffffffffffffffffffffffffffffffffffffffff1673ffffffffffffffffffffffffffffffffffffffff16815260200190815260200160002054905083811015611308576040517f08c379a00000000000000000000000000000000000000000000000000000000081526004016112ff90612979565b60405180910390fd5b83810360008087815260200190815260200160002060008973ffffffffffffffffffffffffffffffffffffffff1673ffffffffffffffffffffffffffffffffffffffff168152602001908152602001600020819055508360008087815260200190815260200160002060008873ffffffffffffffffffffffffffffffffffffffff1673ffffffffffffffffffffffffffffffffffffffff16815260200190815260200160002060008282546113bd9190612764565b925050819055508573ffffffffffffffffffffffffffffffffffffffff168773ffffffffffffffffffffffffffffffffffffffff168373ffffffffffffffffffffffffffffffffffffffff167fc3d58168c5ae7397731d063d5bbf3d657854427343f4c083240f7aacaa2d0f62888860405161143a9291906127ba565b60405180910390a46114508288888888886114db565b50505050505050565b60606000600167ffffffffffffffff81111561147857611477611b76565b5b6040519080825280602002602001820160405280156114a65781602001602082028036833780820191505090505b50905082816000815181106114be576114bd612409565b5b60200260200101818152505080915050919050565b505050505050565b6114fa8473ffffffffffffffffffffffffffffffffffffffff166118a9565b156116ba578373ffffffffffffffffffffffffffffffffffffffff1663f23a6e6187878686866040518663ffffffff1660e01b8152600401611540959493929190612a25565b602060405180830381600087803b15801561155a57600080fd5b505af192505050801561158b57506040513d601f19601f820116820180604052508101906115889190612a94565b60015b61163157611597612ace565b806308c379a014156115f457506115ac612af0565b806115b757506115f6565b806040517f08c379a00000000000000000000000000000000000000000000000000000000081526004016115eb9190611b4f565b60405180910390fd5b505b6040517f08c379a000000000000000000000000000000000000000000000000000000000815260040161162890612bf8565b60405180910390fd5b63f23a6e6160e01b7bffffffffffffffffffffffffffffffffffffffffffffffffffffffff1916817bffffffffffffffffffffffffffffffffffffffffffffffffffffffff1916146116b8576040517f08c379a00000000000000000000000000000000000000000000000000000000081526004016116af90612c8a565b60405180910390fd5b505b505050505050565b6116e18473ffffffffffffffffffffffffffffffffffffffff166118a9565b156118a1578373ffffffffffffffffffffffffffffffffffffffff1663bc197c8187878686866040518663ffffffff1660e01b8152600401611727959493929190612caa565b602060405180830381600087803b15801561174157600080fd5b505af192505050801561177257506040513d601f19601f8201168201806040525081019061176f9190612a94565b60015b6118185761177e612ace565b806308c379a014156117db5750611793612af0565b8061179e57506117dd565b806040517f08c379a00000000000000000000000000000000000000000000000000000000081526004016117d29190611b4f565b60405180910390fd5b505b6040517f08c379a000000000000000000000000000000000000000000000000000000000815260040161180f90612bf8565b60405180910390fd5b63bc197c8160e01b7bffffffffffffffffffffffffffffffffffffffffffffffffffffffff1916817bffffffffffffffffffffffffffffffffffffffffffffffffffffffff19161461189f576040517f08c379a000000000000000000000000000000000000000000000000000000000815260040161189690612c8a565b60405180910390fd5b505b505050505050565b600080823b905060008111915050919050565b6000604051905090565b600080fd5b600080fd5b600073ffffffffffffffffffffffffffffffffffffffff82169050919050565b60006118fb826118d0565b9050919050565b61190b816118f0565b811461191657600080fd5b50565b60008135905061192881611902565b92915050565b6000819050919050565b6119418161192e565b811461194c57600080fd5b50565b60008135905061195e81611938565b92915050565b6000806040838503121561197b5761197a6118c6565b5b600061198985828601611919565b925050602061199a8582860161194f565b9150509250929050565b6119ad8161192e565b82525050565b60006020820190506119c860008301846119a4565b92915050565b60007fffffffff0000000000000000000000000000000000000000000000000000000082169050919050565b611a03816119ce565b8114611a0e57600080fd5b50565b600081359050611a20816119fa565b92915050565b600060208284031215611a3c57611a3b6118c6565b5b6000611a4a84828501611a11565b91505092915050565b60008115159050919050565b611a6881611a53565b82525050565b6000602082019050611a836000830184611a5f565b92915050565b600060208284031215611a9f57611a9e6118c6565b5b6000611aad8482850161194f565b91505092915050565b600081519050919050565b600082825260208201905092915050565b60005b83811015611af0578082015181840152602081019050611ad5565b83811115611aff576000848401525b50505050565b6000601f19601f8301169050919050565b6000611b2182611ab6565b611b2b8185611ac1565b9350611b3b818560208601611ad2565b611b4481611b05565b840191505092915050565b60006020820190508181036000830152611b698184611b16565b905092915050565b600080fd5b7f4e487b7100000000000000000000000000000000000000000000000000000000600052604160045260246000fd5b611bae82611b05565b810181811067ffffffffffffffff82111715611bcd57611bcc611b76565b5b80604052505050565b6000611be06118bc565b9050611bec8282611ba5565b919050565b600067ffffffffffffffff821115611c0c57611c0b611b76565b5b602082029050602081019050919050565b600080fd5b6000611c35611c3084611bf1565b611bd6565b90508083825260208201905060208402830185811115611c5857611c57611c1d565b5b835b81811015611c815780611c6d888261194f565b845260208401935050602081019050611c5a565b5050509392505050565b600082601f830112611ca057611c9f611b71565b5b8135611cb0848260208601611c22565b91505092915050565b600080fd5b600067ffffffffffffffff821115611cd957611cd8611b76565b5b611ce282611b05565b9050602081019050919050565b82818337600083830152505050565b6000611d11611d0c84611cbe565b611bd6565b905082815260208101848484011115611d2d57611d2c611cb9565b5b611d38848285611cef565b509392505050565b600082601f830112611d5557611d54611b71565b5b8135611d65848260208601611cfe565b91505092915050565b600080600080600060a08688031215611d8a57611d896118c6565b5b6000611d9888828901611919565b9550506020611da988828901611919565b945050604086013567ffffffffffffffff811115611dca57611dc96118cb565b5b611dd688828901611c8b565b935050606086013567ffffffffffffffff811115611df757611df66118cb565b5b611e0388828901611c8b565b925050608086013567ffffffffffffffff811115611e2457611e236118cb565b5b611e3088828901611d40565b9150509295509295909350565b600067ffffffffffffffff821115611e5857611e57611b76565b5b602082029050602081019050919050565b6000611e7c611e7784611e3d565b611bd6565b90508083825260208201905060208402830185811115611e9f57611e9e611c1d565b5b835b81811015611ec85780611eb48882611919565b845260208401935050602081019050611ea1565b5050509392505050565b600082601f830112611ee757611ee6611b71565b5b8135611ef7848260208601611e69565b91505092915050565b60008060408385031215611f1757611f166118c6565b5b600083013567ffffffffffffffff811115611f3557611f346118cb565b5b611f4185828601611ed2565b925050602083013567ffffffffffffffff811115611f6257611f616118cb565b5b611f6e85828601611c8b565b9150509250929050565b600081519050919050565b600082825260208201905092915050565b6000819050602082019050919050565b611fad8161192e565b82525050565b6000611fbf8383611fa4565b60208301905092915050565b6000602082019050919050565b6000611fe382611f78565b611fed8185611f83565b9350611ff883611f94565b8060005b838110156120295781516120108882611fb3565b975061201b83611fcb565b925050600181019050611ffc565b5085935050505092915050565b600060208201905081810360008301526120508184611fd8565b905092915050565b612061816118f0565b82525050565b600060208201905061207c6000830184612058565b92915050565b61208b81611a53565b811461209657600080fd5b50565b6000813590506120a881612082565b92915050565b600080604083850312156120c5576120c46118c6565b5b60006120d385828601611919565b92505060206120e485828601612099565b9150509250929050565b60008060408385031215612105576121046118c6565b5b600061211385828601611919565b925050602061212485828601611919565b9150509250929050565b600080600080600060a0868803121561214a576121496118c6565b5b600061215888828901611919565b955050602061216988828901611919565b945050604061217a8882890161194f565b935050606061218b8882890161194f565b925050608086013567ffffffffffffffff8111156121ac576121ab6118cb565b5b6121b888828901611d40565b9150509295509295909350565b6000602082840312156121db576121da6118c6565b5b60006121e984828501611919565b91505092915050565b7f455243313135353a2062616c616e636520717565727920666f7220746865207a60008201527f65726f2061646472657373000000000000000000000000000000000000000000602082015250565b600061224e602b83611ac1565b9150612259826121f2565b604082019050919050565b6000602082019050818103600083015261227d81612241565b9050919050565b7f4e487b7100000000000000000000000000000000000000000000000000000000600052602260045260246000fd5b600060028204905060018216806122cb57607f821691505b602082108114156122df576122de612284565b5b50919050565b7f455243313135353a207472616e736665722063616c6c6572206973206e6f742060008201527f6f776e6572206e6f7220617070726f7665640000000000000000000000000000602082015250565b6000612341603283611ac1565b915061234c826122e5565b604082019050919050565b6000602082019050818103600083015261237081612334565b9050919050565b7f455243313135353a206163636f756e747320616e6420696473206c656e67746860008201527f206d69736d617463680000000000000000000000000000000000000000000000602082015250565b60006123d3602983611ac1565b91506123de82612377565b604082019050919050565b60006020820190508181036000830152612402816123c6565b9050919050565b7f4e487b7100000000000000000000000000000000000000000000000000000000600052603260045260246000fd5b7f4e487b7100000000000000000000000000000000000000000000000000000000600052601160045260246000fd5b60006124728261192e565b91507fffffffffffffffffffffffffffffffffffffffffffffffffffffffffffffffff8214156124a5576124a4612438565b5b600182019050919050565b7f4f776e61626c653a2063616c6c6572206973206e6f7420746865206f776e6572600082015250565b60006124e6602083611ac1565b91506124f1826124b0565b602082019050919050565b60006020820190508181036000830152612515816124d9565b9050919050565b7f455243313135353a2073657474696e6720617070726f76616c2073746174757360008201527f20666f722073656c660000000000000000000000000000000000000000000000602082015250565b6000612578602983611ac1565b91506125838261251c565b604082019050919050565b600060208201905081810360008301526125a78161256b565b9050919050565b7f455243313135353a2063616c6c6572206973206e6f74206f776e6572206e6f7260008201527f20617070726f7665640000000000000000000000000000000000000000000000602082015250565b600061260a602983611ac1565b9150612615826125ae565b604082019050919050565b60006020820190508181036000830152612639816125fd565b9050919050565b7f4f776e61626c653a206e6577206f776e657220697320746865207a65726f206160008201527f6464726573730000000000000000000000000000000000000000000000000000602082015250565b600061269c602683611ac1565b91506126a782612640565b604082019050919050565b600060208201905081810360008301526126cb8161268f565b9050919050565b7f455243313135353a206d696e7420746f20746865207a65726f2061646472657360008201527f7300000000000000000000000000000000000000000000000000000000000000602082015250565b600061272e602183611ac1565b9150612739826126d2565b604082019050919050565b6000602082019050818103600083015261275d81612721565b9050919050565b600061276f8261192e565b915061277a8361192e565b9250827fffffffffffffffffffffffffffffffffffffffffffffffffffffffffffffffff038211156127af576127ae612438565b5b828201905092915050565b60006040820190506127cf60008301856119a4565b6127dc60208301846119a4565b9392505050565b7f455243313135353a2069647320616e6420616d6f756e7473206c656e6774682060008201527f6d69736d61746368000000000000000000000000000000000000000000000000602082015250565b600061283f602883611ac1565b915061284a826127e3565b604082019050919050565b6000602082019050818103600083015261286e81612832565b9050919050565b7f455243313135353a207472616e7366657220746f20746865207a65726f20616460008201527f6472657373000000000000000000000000000000000000000000000000000000602082015250565b60006128d1602583611ac1565b91506128dc82612875565b604082019050919050565b60006020820190508181036000830152612900816128c4565b9050919050565b7f455243313135353a20696e73756666696369656e742062616c616e636520666f60008201527f72207472616e7366657200000000000000000000000000000000000000000000602082015250565b6000612963602a83611ac1565b915061296e82612907565b604082019050919050565b6000602082019050818103600083015261299281612956565b9050919050565b600060408201905081810360008301526129b38185611fd8565b905081810360208301526129c78184611fd8565b90509392505050565b600081519050919050565b600082825260208201905092915050565b60006129f7826129d0565b612a0181856129db565b9350612a11818560208601611ad2565b612a1a81611b05565b840191505092915050565b600060a082019050612a3a6000830188612058565b612a476020830187612058565b612a5460408301866119a4565b612a6160608301856119a4565b8181036080830152612a7381846129ec565b90509695505050505050565b600081519050612a8e816119fa565b92915050565b600060208284031215612aaa57612aa96118c6565b5b6000612ab884828501612a7f565b91505092915050565b60008160e01c9050919050565b600060033d1115612aed5760046000803e612aea600051612ac1565b90505b90565b600060443d1015612b0057612b83565b612b086118bc565b60043d036004823e80513d602482011167ffffffffffffffff82111715612b30575050612b83565b808201805167ffffffffffffffff811115612b4e5750505050612b83565b80602083010160043d038501811115612b6b575050505050612b83565b612b7a82602001850186611ba5565b82955050505050505b90565b7f455243313135353a207472616e7366657220746f206e6f6e204552433131353560008201527f526563656976657220696d706c656d656e746572000000000000000000000000602082015250565b6000612be2603483611ac1565b9150612bed82612b86565b604082019050919050565b60006020820190508181036000830152612c1181612bd5565b9050919050565b7f455243313135353a204552433131353552656365697665722072656a6563746560008201527f6420746f6b656e73000000000000000000000000000000000000000000000000602082015250565b6000612c74602883611ac1565b9150612c7f82612c18565b604082019050919050565b60006020820190508181036000830152612ca381612c67565b9050919050565b600060a082019050612cbf6000830188612058565b612ccc6020830187612058565b8181036040830152612cde8186611fd8565b90508181036060830152612cf28185611fd8565b90508181036080830152612d0681846129ec565b9050969550505050505056fea26469706673582212208fa78e0ec2a04a6c5efc71ba32805caa081689e85da8ca6925c33034bd33461764736f6c63430008090033516d5a474b745631714d6248746375716261777631537935454d316f74397261527839377a794a705a706f434372",
  "immutableReferences": {},
  "source": "pragma solidity ^0.8.0;\n\nimport \"../client/node_modules/@openzeppelin/contracts/token/ERC1155/ERC1155.sol\";\nimport \"../client/node_modules/@openzeppelin/contracts/access/Ownable.sol\";\n\ncontract GameNFT is ERC1155, Ownable {\n    uint256 public constant OakTree = 0;\n    uint256 public constant PineTree = 1;\n    uint256 public constant WeepingWillow = 2;\n    uint256 public constant BonsaiTree = 3;\n    uint256 public constant CherryTree = 4;\n\n    // need to pass in an URI addrees from IPFS behind ERC1155 later not sure? but it works fine as it is right now\n    constructor()\n        ERC1155(\n            \"QmZGKtV1qMbHtcuqbawv1Sy5EM1ot9raRx97zyJpZpoCCr\"\n        )\n    {}\n\n    function reward(address _user, uint256 _tokenId) public {\n        require(_tokenId >= 0 && _tokenId < 5);\n        _mint(_user, _tokenId, 1, \"\");\n    }\n}\n",
  "sourcePath": "/Users/benye/Desktop/fullstack/Gamechain/contracts/NFToken.sol",
  "compiler": {
    "name": "solc",
    "version": "0.8.9+commit.e5eed63a.Emscripten.clang"
  },
  "schemaVersion": "3.4.3",
  "updatedAt": "2021-10-26T18:55:24.480Z",
  "networkType": "ethereum",
  "devdoc": {
    "kind": "dev",
    "methods": {
      "balanceOf(address,uint256)": {
        "details": "See {IERC1155-balanceOf}. Requirements: - `account` cannot be the zero address."
      },
      "balanceOfBatch(address[],uint256[])": {
        "details": "See {IERC1155-balanceOfBatch}. Requirements: - `accounts` and `ids` must have the same length."
      },
      "isApprovedForAll(address,address)": {
        "details": "See {IERC1155-isApprovedForAll}."
      },
      "owner()": {
        "details": "Returns the address of the current owner."
      },
      "renounceOwnership()": {
        "details": "Leaves the contract without owner. It will not be possible to call `onlyOwner` functions anymore. Can only be called by the current owner. NOTE: Renouncing ownership will leave the contract without an owner, thereby removing any functionality that is only available to the owner."
      },
      "safeBatchTransferFrom(address,address,uint256[],uint256[],bytes)": {
        "details": "See {IERC1155-safeBatchTransferFrom}."
      },
      "safeTransferFrom(address,address,uint256,uint256,bytes)": {
        "details": "See {IERC1155-safeTransferFrom}."
      },
      "setApprovalForAll(address,bool)": {
        "details": "See {IERC1155-setApprovalForAll}."
      },
      "supportsInterface(bytes4)": {
        "details": "See {IERC165-supportsInterface}."
      },
      "transferOwnership(address)": {
        "details": "Transfers ownership of the contract to a new account (`newOwner`). Can only be called by the current owner."
      },
      "uri(uint256)": {
        "details": "See {IERC1155MetadataURI-uri}. This implementation returns the same URI for *all* token types. It relies on the token type ID substitution mechanism https://eips.ethereum.org/EIPS/eip-1155#metadata[defined in the EIP]. Clients calling this function must replace the `\\{id\\}` substring with the actual token type ID."
      }
    },
    "version": 1
  },
  "userdoc": {
    "kind": "user",
    "methods": {},
    "version": 1
  }
}